S01400005052494E5420535452494E472E737265638C
S11300000C942A000C9447000C9447000C9447006D
S11300100C9447000C9447000C9447000C94470040
S11300200C9447000C9447000C9447000C94470030
S11300300C9447000C9447000C9447000C94470020
S11300400C9447000C9447000C9447000C94470010
S11300500C94470011241FBECFE5D8E0DEBFCDBF0E
S113006010E0A0E6B0E0E6E2FAE002C005900D92EE
S1130070A036B107D9F710E0A0E6B0E001C01D92A8
S1130080A036B107E1F70E949E040C9411050C946C
S11300900000843409F471C0853448F4823499F141
S11300A0833408F04DC0813409F083C00FC0823618
S11300B051F1833620F4813609F07BC007C08336C2
S11300C009F43EC0843609F074C057C0413069F465
S11300D02AB381E090E0AC0102C0440F551F6A9539
S11300E0E2F7BA01622B6ABB08952AB381E090E07B
S11300F0AC0102C0440F551F6A95E2F7BA0160953E
S113010062236ABB0895413069F427B381E090E02B
S1130110AC0102C0440F551F6A95E2F7BA01622B85
S113012067BB089527B381E090E0AC0102C0440F9F
S1130130551F6A95E2F7BA016095622367BB08957B
S1130140413069F424B381E090E0AC0102C0440F73
S1130150551F6A95E2F7BA01622B64BB089524B374
S113016081E090E0AC0102C0440F551F6A95E2F7AC
S1130170BA016095622364BB0895413069F421B3E8
S113018081E090E0AC0102C0440F551F6A95E2F78C
S1130190BA01622B61BB089521B381E090E0AC0108
S11301A002C0440F551F6A95E2F7BA0160956223B5
S11301B061BB0895843409F471C0853448F48234F1
S11301C099F1833408F04DC0813409F083C00FC025
S11301D0823651F1833620F4813609F07BC007C0A2
S11301E0833609F43EC0843609F074C057C04130E8
S11301F069F42BB381E090E0AC0102C0440F551FB9
S11302006A95E2F7BA01622B6BBB08952BB381E0C8
S113021090E0AC0102C0440F551F6A95E2F7BA01A1
S1130220609562236BBB0895413069F428B381E083
S113023090E0AC0102C0440F551F6A95E2F7BA0181
S1130240622B68BB089528B381E090E0AC0102C042
S1130250440F551F6A95E2F7BA016095622368BBA3
S11302600895413069F425B381E090E0AC0102C007
S1130270440F551F6A95E2F7BA01622B65BB0895D6
S113028025B381E090E0AC0102C0440F551F6A958C
S1130290E2F7BA016095622365BB0895413069F4C1
S11302A022B381E090E0AC0102C0440F551F6A956F
S11302B0E2F7BA01622B62BB089522B381E090E0B9
S11302C0AC0102C0440F551F6A95E2F7BA0160956C
S11302D0622362BB0895843409F43DC0853440F43C
S11302E08234F9F0833450F5813409F040C00CC0F5
S11302F08236B9F0833618F48136C9F505C08336E1
S1130300E9F08436A1F527C02BB381E090E0AC017D
S113031002C0440F551F6A95E2F7BA0162276BBB0E
S1130320089528B381E090E0AC0102C0440F551F4A
S11303306A95E2F7BA01622768BB089525B381E0A4
S113034090E0AC0102C0440F551F6A95E2F7BA0170
S1130350622765BB089522B381E090E0AC0102C03E
S1130360440F551F6A95E2F7BA01622762BB0895EC
S1130370843409F44EC0853440F4823431F183343A
S1130380B0F5813409F057C00EC08236F1F08336DF
S113039020F4813609F04FC006C0833641F184361B
S11303A009F049C036C029B381E090E0062E02C0AE
S11303B0880F991F0A94E2F730E08223932302C046
S11303C0959587956A95E2F7089526B381E090E0C4
S11303D0062E02C0880F991F0A94E2F730E08223A8
S11303E0932302C0959587956A95E2F7089523B300
S11303F081E090E0062E02C0880F991F0A94E2F76C
S113040030E08223932302C0959587956A95E2F79D
S1130410089520B381E090E0062E02C0880F991F52
S11304200A94E2F730E08223932302C095958795DE
S11304306A95E2F7089580E008958434D9F085340C
S113044038F4823499F0833498F48134A1F40CC0E4
S1130450823661F0833618F4813669F405C0833638
S113046039F0843641F406C06ABB089567BB089529
S113047064BB089561BB08958434D9F0853438F49D
S1130480823499F0833498F48134A1F40CC0823618
S113049061F0833618F4813669F405C0833639F087
S11304A0843641F406C06BBB089568BB089565BBF0
S11304B0089562BB0895843409F1853438F4823494
S11304C0A9F08334B8F48134E1F40CC0823671F0BD
S11304D0833618F48136A9F405C0833659F084367E
S11304E081F40CC08BB380958BBB089588B3809541
S11304F088BB089585B3809585BB089582B38095A4
S113050082BB08958434D9F0853438F4823499F068
S1130510833498F48134A9F40CC0823661F08336B4
S113052018F4813671F405C0833639F0843649F401
S113053006C080B3089586B3089583B3089580B345
S1130540089580E00895843409F471C0853448F432
S1130550823499F1833408F04DC0813409F083C0AA
S11305600FC0823651F1833620F4813609F07BC006
S113057007C0833609F43EC0843609F074C057C0FE
S1130580413069F42BB381E090E0AC0102C0440F28
S1130590551F6A95E2F7BA01622B6BBB08952BB322
S11305A081E090E0AC0102C0440F551F6A95E2F768
S11305B0BA01609562236BBB0895413069F428B396
S11305C081E090E0AC0102C0440F551F6A95E2F748
S11305D0BA01622B68BB089528B381E090E0AC01B6
S11305E002C0440F551F6A95E2F7BA016095622371
S11305F068BB0895413069F425B381E090E0AC0113
S113060002C0440F551F6A95E2F7BA01622B65BB1D
S1130610089525B381E090E0AC0102C0440F551F5A
S11306206A95E2F7BA016095622365BB089541308B
S113063069F422B381E090E0AC0102C0440F551F7D
S11306406A95E2F7BA01622B62BB089522B381E096
S113065090E0AC0102C0440F551F6A95E2F7BA015D
S11306606095622362BB08950F931F93CF93C82FA5
S1130670062F462F417060E00E94DA0010E0A801C6
S113068042705070559547958C2F61E00E94DA00B6
S1130690A8014470507055954795559547958C2FF2
S11306A062E00E94DA0008701070A8015595479521
S11306B055954795559547958C2F63E00E94DA0030
S11306C0CF911F910F9108950F931F93CF93C82F2C
S11306D0062F462F417064E00E94DA0010E0A80162
S11306E042705070559547958C2F65E00E94DA0052
S11306F0A8014470507055954795559547958C2F92
S113070066E00E94DA0008701070A80155954795BC
S113071055954795559547958C2F67E00E94DA00CB
S1130720CF911F910F91089583E462E041E00E940C
S1130730DA008FE097E20197F1F700C0000083E44C
S113074062E040E00E94DA008FE097E20197F1F75F
S113075000C000000895CF93C82F682F62956F7072
S113076083E40E94640383E460E040E00E94DA00D2
S11307700E9494038FE99FE00197F1F700C0000005
S113078083E46C2F0E94640383E460E040E00E94F1
S1130790DA000E9494038FE99FE00197F1F700C00B
S11307A00000CF910895CF93C82F682F62956F7082
S11307B083E40E94640383E460E041E00E94DA0081
S11307C00E9494038FEC97E00197F1F700C00000BA
S11307D083E46C2F0E94640383E460E041E00E94A0
S11307E0DA000E9494038FEC97E00197F1F700C0C0
S11307F00000CF91089581E00E94AB038FE19EE455
S11308000197F1F700C0000008958FEF91EEA4E086
S113081081509040A040E1F700C0000083E464E010
S113082041E00E94490083E465E041E00E94490000
S113083083E466E041E00E94490083E467E041E02C
S11308400E94490083E462E041E00E94490083E49D
S113085060E041E00E94490083E461E041E00E94DD
S1130860490083E461E040E00E94DA0082E00E94F3
S1130870AB03AFE1BEE41197F1F700C0000088E2DA
S11308800E94AB038FEC97E00197F1F700C00000E2
S11308908EE00E94AB03AFECB7E01197F1F700C014
S11308A0000081E00E94AB038FE19EE40197F1F721
S11308B000C0000086E00E94AB03AFECB7E01197E4
S11308C0F1F700C000000895CF93DF93EC01888115
S11308D0882331F021960E94D30389918823D9F784
S11308E0DF91CF910895282F21502430C0F466233E
S11308F0C1F06531C0F4813019F4962F915814C0B9
S1130900823019F4962F91540FC0833019F4962F26
S113091091570AC0843041F4962F915305C090E852
S113092003C090E801C090E8892F0E94AB038FECCC
S113093097E00197F1F700C0000008950E940504B4
S113094060E875E280E090E00E94AC040E94D30469
S113095090E00E94D303FACFDC01CB01880F991FEA
S1130960AA1FBB1F880F991FAA1FBB1F9C01AD01A3
S1130970220F331F441F551F220F331F441F551FBF
S113098060E072E18AE790E00E94EF042150304079
S113099030BD29B9539A549A86E880BD08955D9B69
S11309A0FECF8CB908955F9BFECF8CB10895CF9391
S11309B0DF93EC018881882379F021960E94CF048B
S11309C08FEF90E7A2E081509040A040E1F700C093
S11309D000008991882391F7DF91CF910895A1E2D6
S11309E01A2EAA1BBB1BFD010DC0AA1FBB1FEE1FA5
S11309F0FF1FA217B307E407F50720F0A21BB30BF0
S1130A00E40BF50B661F771F881F991F1A9469F76B
S1130A1060957095809590959B01AC01BD01CF01C7
S1090A200895F894FFCFD5
S9030000FC
